{
  "_format": "hh-sol-artifact-1",
  "contractName": "Bridge",
  "sourceName": "contracts/Bridge.sol",
  "abi": [
    {
      "inputs": [
        {
          "internalType": "address",
          "name": "_token",
          "type": "address"
        }
      ],
      "stateMutability": "nonpayable",
      "type": "constructor"
    },
    {
      "anonymous": false,
      "inputs": [
        {
          "indexed": false,
          "internalType": "address",
          "name": "",
          "type": "address"
        }
      ],
      "name": "AdminRemoved",
      "type": "event"
    },
    {
      "anonymous": false,
      "inputs": [
        {
          "indexed": false,
          "internalType": "address",
          "name": "",
          "type": "address"
        }
      ],
      "name": "AdminSet",
      "type": "event"
    },
    {
      "anonymous": false,
      "inputs": [
        {
          "indexed": false,
          "internalType": "address",
          "name": "from",
          "type": "address"
        },
        {
          "indexed": false,
          "internalType": "string",
          "name": "to",
          "type": "string"
        },
        {
          "indexed": false,
          "internalType": "uint256",
          "name": "amount",
          "type": "uint256"
        },
        {
          "indexed": false,
          "internalType": "uint256",
          "name": "date",
          "type": "uint256"
        }
      ],
      "name": "onBurn",
      "type": "event"
    },
    {
      "anonymous": false,
      "inputs": [
        {
          "indexed": false,
          "internalType": "address",
          "name": "from",
          "type": "address"
        },
        {
          "indexed": false,
          "internalType": "address",
          "name": "to",
          "type": "address"
        },
        {
          "indexed": false,
          "internalType": "uint256",
          "name": "amount",
          "type": "uint256"
        },
        {
          "indexed": false,
          "internalType": "uint256",
          "name": "date",
          "type": "uint256"
        }
      ],
      "name": "onMint",
      "type": "event"
    },
    {
      "inputs": [
        {
          "internalType": "address",
          "name": "",
          "type": "address"
        }
      ],
      "name": "admins",
      "outputs": [
        {
          "internalType": "bool",
          "name": "",
          "type": "bool"
        }
      ],
      "stateMutability": "view",
      "type": "function"
    },
    {
      "inputs": [
        {
          "internalType": "address",
          "name": "account",
          "type": "address"
        }
      ],
      "name": "balance",
      "outputs": [
        {
          "internalType": "uint256",
          "name": "",
          "type": "uint256"
        }
      ],
      "stateMutability": "view",
      "type": "function"
    },
    {
      "inputs": [
        {
          "internalType": "address",
          "name": "",
          "type": "address"
        }
      ],
      "name": "bridgeable",
      "outputs": [
        {
          "internalType": "bool",
          "name": "",
          "type": "bool"
        }
      ],
      "stateMutability": "view",
      "type": "function"
    },
    {
      "inputs": [
        {
          "internalType": "string",
          "name": "to",
          "type": "string"
        },
        {
          "internalType": "uint256",
          "name": "amount",
          "type": "uint256"
        }
      ],
      "name": "burn",
      "outputs": [],
      "stateMutability": "nonpayable",
      "type": "function"
    },
    {
      "inputs": [],
      "name": "getContractAddress",
      "outputs": [
        {
          "internalType": "address",
          "name": "",
          "type": "address"
        }
      ],
      "stateMutability": "view",
      "type": "function"
    },
    {
      "inputs": [
        {
          "internalType": "address",
          "name": "to",
          "type": "address"
        },
        {
          "internalType": "uint256",
          "name": "amount",
          "type": "uint256"
        }
      ],
      "name": "mint",
      "outputs": [],
      "stateMutability": "nonpayable",
      "type": "function"
    },
    {
      "inputs": [
        {
          "internalType": "address",
          "name": "_address",
          "type": "address"
        }
      ],
      "name": "removeAdmin",
      "outputs": [
        {
          "internalType": "bool",
          "name": "",
          "type": "bool"
        }
      ],
      "stateMutability": "nonpayable",
      "type": "function"
    },
    {
      "inputs": [
        {
          "internalType": "address",
          "name": "_address",
          "type": "address"
        }
      ],
      "name": "setAdmin",
      "outputs": [
        {
          "internalType": "bool",
          "name": "",
          "type": "bool"
        }
      ],
      "stateMutability": "nonpayable",
      "type": "function"
    }
  ],
  "bytecode": "0x60806040526001600260006101000a81548160ff02191690831515021790555034801561002b57600080fd5b50604051610d79380380610d79833981810160405281019061004d919061018e565b336000806101000a81548173ffffffffffffffffffffffffffffffffffffffff021916908373ffffffffffffffffffffffffffffffffffffffff16021790555080600260016101000a81548173ffffffffffffffffffffffffffffffffffffffff021916908373ffffffffffffffffffffffffffffffffffffffff16021790555060018060003373ffffffffffffffffffffffffffffffffffffffff1673ffffffffffffffffffffffffffffffffffffffff16815260200190815260200160002060006101000a81548160ff021916908315150217905550506101bb565b600080fd5b600073ffffffffffffffffffffffffffffffffffffffff82169050919050565b600061015b82610130565b9050919050565b61016b81610150565b811461017657600080fd5b50565b60008151905061018881610162565b92915050565b6000602082840312156101a4576101a361012b565b5b60006101b284828501610179565b91505092915050565b610baf806101ca6000396000f3fe608060405234801561001057600080fd5b50600436106100885760003560e01c8063704b6c021161005b578063704b6c0214610127578063b48272cc14610157578063e3d670d714610173578063f5175f8b146101a357610088565b80631785f53c1461008d57806332a2c5d0146100bd57806340c10f19146100db578063429b62e5146100f7575b600080fd5b6100a760048036038101906100a29190610740565b6101d3565b6040516100b49190610788565b60405180910390f35b6100c56102fc565b6040516100d291906107b2565b60405180910390f35b6100f560048036038101906100f09190610803565b610304565b005b610111600480360381019061010c9190610740565b6103e6565b60405161011e9190610788565b60405180910390f35b610141600480360381019061013c9190610740565b610406565b60405161014e9190610788565b60405180910390f35b610171600480360381019061016c91906108a8565b61052e565b005b61018d60048036038101906101889190610740565b610613565b60405161019a9190610917565b60405180910390f35b6101bd60048036038101906101b89190610740565b6106b8565b6040516101ca9190610788565b60405180910390f35b60008060009054906101000a900473ffffffffffffffffffffffffffffffffffffffff1673ffffffffffffffffffffffffffffffffffffffff163373ffffffffffffffffffffffffffffffffffffffff1614610264576040517f08c379a000000000000000000000000000000000000000000000000000000000815260040161025b906109b5565b60405180910390fd5b6000600160008473ffffffffffffffffffffffffffffffffffffffff1673ffffffffffffffffffffffffffffffffffffffff16815260200190815260200160002060006101000a81548160ff0219169083151502179055507fa3b62bc36326052d97ea62d63c3d60308ed4c3ea8ac079dd8499f1e9c4f80c0f826040516102eb91906107b2565b60405180910390a160019050919050565b600030905090565b600260019054906101000a900473ffffffffffffffffffffffffffffffffffffffff1673ffffffffffffffffffffffffffffffffffffffff1663484b973c83836040518363ffffffff1660e01b81526004016103619291906109d5565b6020604051808303816000875af1158015610380573d6000803e3d6000fd5b505050506040513d601f19601f820116820180604052508101906103a49190610a2a565b507f3f812ccc5b91440c19ad6f3280b1bf8ba2d1a5b695727d16f465c9373fd88cd7338383426040516103da9493929190610a57565b60405180910390a15050565b60046020528060005260406000206000915054906101000a900460ff1681565b60008060009054906101000a900473ffffffffffffffffffffffffffffffffffffffff1673ffffffffffffffffffffffffffffffffffffffff163373ffffffffffffffffffffffffffffffffffffffff1614610497576040517f08c379a000000000000000000000000000000000000000000000000000000000815260040161048e906109b5565b60405180910390fd5b60018060008473ffffffffffffffffffffffffffffffffffffffff1673ffffffffffffffffffffffffffffffffffffffff16815260200190815260200160002060006101000a81548160ff0219169083151502179055507f8fe72c3e0020beb3234e76ae6676fa576fbfcae600af1c4fea44784cf0db329c8260405161051d91906107b2565b60405180910390a160019050919050565b600260019054906101000a900473ffffffffffffffffffffffffffffffffffffffff1673ffffffffffffffffffffffffffffffffffffffff1663c000178633836040518363ffffffff1660e01b815260040161058b9291906109d5565b6020604051808303816000875af11580156105aa573d6000803e3d6000fd5b505050506040513d601f19601f820116820180604052508101906105ce9190610a2a565b507f3d589183eab4fa8527be27ef10cf62c16ef150dac78c70c90c25685bae3a02193384848442604051610606959493929190610ae9565b60405180910390a1505050565b6000600260019054906101000a900473ffffffffffffffffffffffffffffffffffffffff1673ffffffffffffffffffffffffffffffffffffffff166370a08231836040518263ffffffff1660e01b815260040161067091906107b2565b602060405180830381865afa15801561068d573d6000803e3d6000fd5b505050506040513d601f19601f820116820180604052508101906106b19190610b4c565b9050919050565b60036020528060005260406000206000915054906101000a900460ff1681565b600080fd5b600080fd5b600073ffffffffffffffffffffffffffffffffffffffff82169050919050565b600061070d826106e2565b9050919050565b61071d81610702565b811461072857600080fd5b50565b60008135905061073a81610714565b92915050565b600060208284031215610756576107556106d8565b5b60006107648482850161072b565b91505092915050565b60008115159050919050565b6107828161076d565b82525050565b600060208201905061079d6000830184610779565b92915050565b6107ac81610702565b82525050565b60006020820190506107c760008301846107a3565b92915050565b6000819050919050565b6107e0816107cd565b81146107eb57600080fd5b50565b6000813590506107fd816107d7565b92915050565b6000806040838503121561081a576108196106d8565b5b60006108288582860161072b565b9250506020610839858286016107ee565b9150509250929050565b600080fd5b600080fd5b600080fd5b60008083601f84011261086857610867610843565b5b8235905067ffffffffffffffff81111561088557610884610848565b5b6020830191508360018202830111156108a1576108a061084d565b5b9250929050565b6000806000604084860312156108c1576108c06106d8565b5b600084013567ffffffffffffffff8111156108df576108de6106dd565b5b6108eb86828701610852565b935093505060206108fe868287016107ee565b9150509250925092565b610911816107cd565b82525050565b600060208201905061092c6000830184610908565b92915050565b600082825260208201905092915050565b7f4f6e6c79206f776e65722069732061626c6520746f206163636573732074686960008201527f732066756e6374696f6e00000000000000000000000000000000000000000000602082015250565b600061099f602a83610932565b91506109aa82610943565b604082019050919050565b600060208201905081810360008301526109ce81610992565b9050919050565b60006040820190506109ea60008301856107a3565b6109f76020830184610908565b9392505050565b610a078161076d565b8114610a1257600080fd5b50565b600081519050610a24816109fe565b92915050565b600060208284031215610a4057610a3f6106d8565b5b6000610a4e84828501610a15565b91505092915050565b6000608082019050610a6c60008301876107a3565b610a7960208301866107a3565b610a866040830185610908565b610a936060830184610908565b95945050505050565b82818337600083830152505050565b6000601f19601f8301169050919050565b6000610ac88385610932565b9350610ad5838584610a9c565b610ade83610aab565b840190509392505050565b6000608082019050610afe60008301886107a3565b8181036020830152610b11818688610abc565b9050610b206040830185610908565b610b2d6060830184610908565b9695505050505050565b600081519050610b46816107d7565b92915050565b600060208284031215610b6257610b616106d8565b5b6000610b7084828501610b37565b9150509291505056fea2646970667358221220aaf1331a79652068d98d1f6886a4ae45907ae701732c328961556e322a9fe1ac64736f6c634300080e0033",
  "linkReferences": {},
  "deployedLinkReferences": {}
}