{
  "_format": "hh-sol-artifact-1",
  "contractName": "Bridge",
  "sourceName": "contracts/Bridge.sol",
  "abi": [
    {
      "inputs": [
        {
          "internalType": "address",
          "name": "_token",
          "type": "address"
        }
      ],
      "stateMutability": "nonpayable",
      "type": "constructor"
    },
    {
      "anonymous": false,
      "inputs": [
        {
          "indexed": false,
          "internalType": "address",
          "name": "",
          "type": "address"
        }
      ],
      "name": "AdminRemoved",
      "type": "event"
    },
    {
      "anonymous": false,
      "inputs": [
        {
          "indexed": false,
          "internalType": "address",
          "name": "",
          "type": "address"
        }
      ],
      "name": "AdminSet",
      "type": "event"
    },
    {
      "anonymous": false,
      "inputs": [
        {
          "indexed": false,
          "internalType": "address",
          "name": "from",
          "type": "address"
        },
        {
          "indexed": false,
          "internalType": "string",
          "name": "to",
          "type": "string"
        },
        {
          "indexed": false,
          "internalType": "uint256",
          "name": "amount",
          "type": "uint256"
        },
        {
          "indexed": false,
          "internalType": "uint256",
          "name": "date",
          "type": "uint256"
        }
      ],
      "name": "onBurn",
      "type": "event"
    },
    {
      "anonymous": false,
      "inputs": [
        {
          "indexed": false,
          "internalType": "address",
          "name": "from",
          "type": "address"
        },
        {
          "indexed": false,
          "internalType": "address",
          "name": "to",
          "type": "address"
        },
        {
          "indexed": false,
          "internalType": "uint256",
          "name": "amount",
          "type": "uint256"
        },
        {
          "indexed": false,
          "internalType": "uint256",
          "name": "date",
          "type": "uint256"
        }
      ],
      "name": "onMint",
      "type": "event"
    },
    {
      "inputs": [
        {
          "internalType": "address",
          "name": "",
          "type": "address"
        }
      ],
      "name": "admins",
      "outputs": [
        {
          "internalType": "bool",
          "name": "",
          "type": "bool"
        }
      ],
      "stateMutability": "view",
      "type": "function"
    },
    {
      "inputs": [
        {
          "internalType": "address",
          "name": "account",
          "type": "address"
        }
      ],
      "name": "balance",
      "outputs": [
        {
          "internalType": "uint256",
          "name": "",
          "type": "uint256"
        }
      ],
      "stateMutability": "view",
      "type": "function"
    },
    {
      "inputs": [
        {
          "internalType": "address",
          "name": "",
          "type": "address"
        }
      ],
      "name": "bridgeable",
      "outputs": [
        {
          "internalType": "bool",
          "name": "",
          "type": "bool"
        }
      ],
      "stateMutability": "view",
      "type": "function"
    },
    {
      "inputs": [
        {
          "internalType": "string",
          "name": "to",
          "type": "string"
        },
        {
          "internalType": "uint256",
          "name": "amount",
          "type": "uint256"
        }
      ],
      "name": "burn",
      "outputs": [],
      "stateMutability": "nonpayable",
      "type": "function"
    },
    {
      "inputs": [
        {
          "internalType": "address",
          "name": "to",
          "type": "address"
        },
        {
          "internalType": "uint256",
          "name": "amount",
          "type": "uint256"
        }
      ],
      "name": "mint",
      "outputs": [],
      "stateMutability": "nonpayable",
      "type": "function"
    },
    {
      "inputs": [
        {
          "internalType": "address",
          "name": "_address",
          "type": "address"
        }
      ],
      "name": "removeAdmin",
      "outputs": [
        {
          "internalType": "bool",
          "name": "",
          "type": "bool"
        }
      ],
      "stateMutability": "nonpayable",
      "type": "function"
    },
    {
      "inputs": [
        {
          "internalType": "address",
          "name": "_address",
          "type": "address"
        }
      ],
      "name": "setAdmin",
      "outputs": [
        {
          "internalType": "bool",
          "name": "",
          "type": "bool"
        }
      ],
      "stateMutability": "nonpayable",
      "type": "function"
    }
  ],
  "bytecode": "0x60806040526001600260006101000a81548160ff02191690831515021790555034801561002b57600080fd5b50604051610d48380380610d48833981810160405281019061004d919061018e565b336000806101000a81548173ffffffffffffffffffffffffffffffffffffffff021916908373ffffffffffffffffffffffffffffffffffffffff16021790555080600260016101000a81548173ffffffffffffffffffffffffffffffffffffffff021916908373ffffffffffffffffffffffffffffffffffffffff16021790555060018060003373ffffffffffffffffffffffffffffffffffffffff1673ffffffffffffffffffffffffffffffffffffffff16815260200190815260200160002060006101000a81548160ff021916908315150217905550506101bb565b600080fd5b600073ffffffffffffffffffffffffffffffffffffffff82169050919050565b600061015b82610130565b9050919050565b61016b81610150565b811461017657600080fd5b50565b60008151905061018881610162565b92915050565b6000602082840312156101a4576101a361012b565b5b60006101b284828501610179565b91505092915050565b610b7e806101ca6000396000f3fe608060405234801561001057600080fd5b506004361061007d5760003560e01c8063704b6c021161005b578063704b6c02146100fe578063b48272cc1461012e578063e3d670d71461014a578063f5175f8b1461017a5761007d565b80631785f53c1461008257806340c10f19146100b2578063429b62e5146100ce575b600080fd5b61009c6004803603810190610097919061070f565b6101aa565b6040516100a99190610757565b60405180910390f35b6100cc60048036038101906100c791906107a8565b6102d3565b005b6100e860048036038101906100e3919061070f565b6103b5565b6040516100f59190610757565b60405180910390f35b6101186004803603810190610113919061070f565b6103d5565b6040516101259190610757565b60405180910390f35b6101486004803603810190610143919061084d565b6104fd565b005b610164600480360381019061015f919061070f565b6105e2565b60405161017191906108bc565b60405180910390f35b610194600480360381019061018f919061070f565b610687565b6040516101a19190610757565b60405180910390f35b60008060009054906101000a900473ffffffffffffffffffffffffffffffffffffffff1673ffffffffffffffffffffffffffffffffffffffff163373ffffffffffffffffffffffffffffffffffffffff161461023b576040517f08c379a00000000000000000000000000000000000000000000000000000000081526004016102329061095a565b60405180910390fd5b6000600160008473ffffffffffffffffffffffffffffffffffffffff1673ffffffffffffffffffffffffffffffffffffffff16815260200190815260200160002060006101000a81548160ff0219169083151502179055507fa3b62bc36326052d97ea62d63c3d60308ed4c3ea8ac079dd8499f1e9c4f80c0f826040516102c29190610989565b60405180910390a160019050919050565b600260019054906101000a900473ffffffffffffffffffffffffffffffffffffffff1673ffffffffffffffffffffffffffffffffffffffff1663484b973c83836040518363ffffffff1660e01b81526004016103309291906109a4565b6020604051808303816000875af115801561034f573d6000803e3d6000fd5b505050506040513d601f19601f8201168201806040525081019061037391906109f9565b507f3f812ccc5b91440c19ad6f3280b1bf8ba2d1a5b695727d16f465c9373fd88cd7338383426040516103a99493929190610a26565b60405180910390a15050565b60046020528060005260406000206000915054906101000a900460ff1681565b60008060009054906101000a900473ffffffffffffffffffffffffffffffffffffffff1673ffffffffffffffffffffffffffffffffffffffff163373ffffffffffffffffffffffffffffffffffffffff1614610466576040517f08c379a000000000000000000000000000000000000000000000000000000000815260040161045d9061095a565b60405180910390fd5b60018060008473ffffffffffffffffffffffffffffffffffffffff1673ffffffffffffffffffffffffffffffffffffffff16815260200190815260200160002060006101000a81548160ff0219169083151502179055507f8fe72c3e0020beb3234e76ae6676fa576fbfcae600af1c4fea44784cf0db329c826040516104ec9190610989565b60405180910390a160019050919050565b600260019054906101000a900473ffffffffffffffffffffffffffffffffffffffff1673ffffffffffffffffffffffffffffffffffffffff1663c000178633836040518363ffffffff1660e01b815260040161055a9291906109a4565b6020604051808303816000875af1158015610579573d6000803e3d6000fd5b505050506040513d601f19601f8201168201806040525081019061059d91906109f9565b507f3d589183eab4fa8527be27ef10cf62c16ef150dac78c70c90c25685bae3a021933848484426040516105d5959493929190610ab8565b60405180910390a1505050565b6000600260019054906101000a900473ffffffffffffffffffffffffffffffffffffffff1673ffffffffffffffffffffffffffffffffffffffff166370a08231836040518263ffffffff1660e01b815260040161063f9190610989565b602060405180830381865afa15801561065c573d6000803e3d6000fd5b505050506040513d601f19601f820116820180604052508101906106809190610b1b565b9050919050565b60036020528060005260406000206000915054906101000a900460ff1681565b600080fd5b600080fd5b600073ffffffffffffffffffffffffffffffffffffffff82169050919050565b60006106dc826106b1565b9050919050565b6106ec816106d1565b81146106f757600080fd5b50565b600081359050610709816106e3565b92915050565b600060208284031215610725576107246106a7565b5b6000610733848285016106fa565b91505092915050565b60008115159050919050565b6107518161073c565b82525050565b600060208201905061076c6000830184610748565b92915050565b6000819050919050565b61078581610772565b811461079057600080fd5b50565b6000813590506107a28161077c565b92915050565b600080604083850312156107bf576107be6106a7565b5b60006107cd858286016106fa565b92505060206107de85828601610793565b9150509250929050565b600080fd5b600080fd5b600080fd5b60008083601f84011261080d5761080c6107e8565b5b8235905067ffffffffffffffff81111561082a576108296107ed565b5b602083019150836001820283011115610846576108456107f2565b5b9250929050565b600080600060408486031215610866576108656106a7565b5b600084013567ffffffffffffffff811115610884576108836106ac565b5b610890868287016107f7565b935093505060206108a386828701610793565b9150509250925092565b6108b681610772565b82525050565b60006020820190506108d160008301846108ad565b92915050565b600082825260208201905092915050565b7f4f6e6c79206f776e65722069732061626c6520746f206163636573732074686960008201527f732066756e6374696f6e00000000000000000000000000000000000000000000602082015250565b6000610944602a836108d7565b915061094f826108e8565b604082019050919050565b6000602082019050818103600083015261097381610937565b9050919050565b610983816106d1565b82525050565b600060208201905061099e600083018461097a565b92915050565b60006040820190506109b9600083018561097a565b6109c660208301846108ad565b9392505050565b6109d68161073c565b81146109e157600080fd5b50565b6000815190506109f3816109cd565b92915050565b600060208284031215610a0f57610a0e6106a7565b5b6000610a1d848285016109e4565b91505092915050565b6000608082019050610a3b600083018761097a565b610a48602083018661097a565b610a5560408301856108ad565b610a6260608301846108ad565b95945050505050565b82818337600083830152505050565b6000601f19601f8301169050919050565b6000610a9783856108d7565b9350610aa4838584610a6b565b610aad83610a7a565b840190509392505050565b6000608082019050610acd600083018861097a565b8181036020830152610ae0818688610a8b565b9050610aef60408301856108ad565b610afc60608301846108ad565b9695505050505050565b600081519050610b158161077c565b92915050565b600060208284031215610b3157610b306106a7565b5b6000610b3f84828501610b06565b9150509291505056fea2646970667358221220e3516c594e60c5bc3edccc57472a5f1ea141895a61cd9b5f280936de91fdf65d64736f6c634300080e0033",
  "linkReferences": {},
  "deployedLinkReferences": {}
}