{
  "_format": "hh-sol-artifact-1",
  "contractName": "Token",
  "sourceName": "contracts/Token.sol",
  "abi": [
    {
      "inputs": [],
      "stateMutability": "nonpayable",
      "type": "constructor"
    },
    {
      "anonymous": false,
      "inputs": [
        {
          "indexed": false,
          "internalType": "address",
          "name": "",
          "type": "address"
        }
      ],
      "name": "AdminRemoved",
      "type": "event"
    },
    {
      "anonymous": false,
      "inputs": [
        {
          "indexed": false,
          "internalType": "address",
          "name": "",
          "type": "address"
        }
      ],
      "name": "AdminSet",
      "type": "event"
    },
    {
      "anonymous": false,
      "inputs": [
        {
          "indexed": true,
          "internalType": "address",
          "name": "owner",
          "type": "address"
        },
        {
          "indexed": true,
          "internalType": "address",
          "name": "spender",
          "type": "address"
        },
        {
          "indexed": false,
          "internalType": "uint256",
          "name": "value",
          "type": "uint256"
        }
      ],
      "name": "Approval",
      "type": "event"
    },
    {
      "anonymous": false,
      "inputs": [
        {
          "indexed": true,
          "internalType": "address",
          "name": "from",
          "type": "address"
        },
        {
          "indexed": false,
          "internalType": "uint256",
          "name": "value",
          "type": "uint256"
        }
      ],
      "name": "Burn",
      "type": "event"
    },
    {
      "anonymous": false,
      "inputs": [
        {
          "indexed": true,
          "internalType": "address",
          "name": "previousOwner",
          "type": "address"
        },
        {
          "indexed": true,
          "internalType": "address",
          "name": "newOwner",
          "type": "address"
        }
      ],
      "name": "OwnershipTransferred",
      "type": "event"
    },
    {
      "anonymous": false,
      "inputs": [
        {
          "indexed": true,
          "internalType": "address",
          "name": "from",
          "type": "address"
        },
        {
          "indexed": true,
          "internalType": "address",
          "name": "to",
          "type": "address"
        },
        {
          "indexed": false,
          "internalType": "uint256",
          "name": "value",
          "type": "uint256"
        }
      ],
      "name": "Transfer",
      "type": "event"
    },
    {
      "inputs": [
        {
          "internalType": "address",
          "name": "owner",
          "type": "address"
        },
        {
          "internalType": "address",
          "name": "spender",
          "type": "address"
        }
      ],
      "name": "allowance",
      "outputs": [
        {
          "internalType": "uint256",
          "name": "",
          "type": "uint256"
        }
      ],
      "stateMutability": "view",
      "type": "function"
    },
    {
      "inputs": [
        {
          "internalType": "address",
          "name": "spender",
          "type": "address"
        },
        {
          "internalType": "uint256",
          "name": "value",
          "type": "uint256"
        }
      ],
      "name": "approve",
      "outputs": [
        {
          "internalType": "bool",
          "name": "",
          "type": "bool"
        }
      ],
      "stateMutability": "nonpayable",
      "type": "function"
    },
    {
      "inputs": [
        {
          "internalType": "address",
          "name": "",
          "type": "address"
        }
      ],
      "name": "balanceOf",
      "outputs": [
        {
          "internalType": "uint256",
          "name": "",
          "type": "uint256"
        }
      ],
      "stateMutability": "view",
      "type": "function"
    },
    {
      "inputs": [],
      "name": "decimals",
      "outputs": [
        {
          "internalType": "uint8",
          "name": "",
          "type": "uint8"
        }
      ],
      "stateMutability": "view",
      "type": "function"
    },
    {
      "inputs": [
        {
          "internalType": "address",
          "name": "spender",
          "type": "address"
        },
        {
          "internalType": "uint256",
          "name": "subtractedValue",
          "type": "uint256"
        }
      ],
      "name": "decreaseAllowance",
      "outputs": [
        {
          "internalType": "bool",
          "name": "",
          "type": "bool"
        }
      ],
      "stateMutability": "nonpayable",
      "type": "function"
    },
    {
      "inputs": [],
      "name": "getContractAddress",
      "outputs": [
        {
          "internalType": "address",
          "name": "",
          "type": "address"
        }
      ],
      "stateMutability": "view",
      "type": "function"
    },
    {
      "inputs": [],
      "name": "getOwner",
      "outputs": [
        {
          "internalType": "address",
          "name": "",
          "type": "address"
        }
      ],
      "stateMutability": "view",
      "type": "function"
    },
    {
      "inputs": [
        {
          "internalType": "address",
          "name": "spender",
          "type": "address"
        },
        {
          "internalType": "uint256",
          "name": "addedValue",
          "type": "uint256"
        }
      ],
      "name": "increaseAllowance",
      "outputs": [
        {
          "internalType": "bool",
          "name": "",
          "type": "bool"
        }
      ],
      "stateMutability": "nonpayable",
      "type": "function"
    },
    {
      "inputs": [],
      "name": "name",
      "outputs": [
        {
          "internalType": "string",
          "name": "",
          "type": "string"
        }
      ],
      "stateMutability": "view",
      "type": "function"
    },
    {
      "inputs": [
        {
          "internalType": "address",
          "name": "from",
          "type": "address"
        },
        {
          "internalType": "uint256",
          "name": "amount",
          "type": "uint256"
        }
      ],
      "name": "ownerBurn",
      "outputs": [
        {
          "internalType": "bool",
          "name": "",
          "type": "bool"
        }
      ],
      "stateMutability": "nonpayable",
      "type": "function"
    },
    {
      "inputs": [
        {
          "internalType": "address",
          "name": "to",
          "type": "address"
        },
        {
          "internalType": "uint256",
          "name": "amount",
          "type": "uint256"
        }
      ],
      "name": "ownerMint",
      "outputs": [
        {
          "internalType": "bool",
          "name": "",
          "type": "bool"
        }
      ],
      "stateMutability": "nonpayable",
      "type": "function"
    },
    {
      "inputs": [],
      "name": "remainingTokens",
      "outputs": [
        {
          "internalType": "uint256",
          "name": "",
          "type": "uint256"
        }
      ],
      "stateMutability": "view",
      "type": "function"
    },
    {
      "inputs": [
        {
          "internalType": "address",
          "name": "_address",
          "type": "address"
        }
      ],
      "name": "removeAdmin",
      "outputs": [
        {
          "internalType": "bool",
          "name": "",
          "type": "bool"
        }
      ],
      "stateMutability": "nonpayable",
      "type": "function"
    },
    {
      "inputs": [
        {
          "internalType": "address",
          "name": "_address",
          "type": "address"
        }
      ],
      "name": "setAdmin",
      "outputs": [
        {
          "internalType": "bool",
          "name": "",
          "type": "bool"
        }
      ],
      "stateMutability": "nonpayable",
      "type": "function"
    },
    {
      "inputs": [
        {
          "internalType": "uint256",
          "name": "amount",
          "type": "uint256"
        }
      ],
      "name": "setMaxSupply",
      "outputs": [
        {
          "internalType": "bool",
          "name": "",
          "type": "bool"
        }
      ],
      "stateMutability": "nonpayable",
      "type": "function"
    },
    {
      "inputs": [
        {
          "internalType": "uint256",
          "name": "amount",
          "type": "uint256"
        }
      ],
      "name": "setTotalSupply",
      "outputs": [
        {
          "internalType": "bool",
          "name": "",
          "type": "bool"
        }
      ],
      "stateMutability": "nonpayable",
      "type": "function"
    },
    {
      "inputs": [],
      "name": "symbol",
      "outputs": [
        {
          "internalType": "string",
          "name": "",
          "type": "string"
        }
      ],
      "stateMutability": "view",
      "type": "function"
    },
    {
      "inputs": [],
      "name": "totalSupply",
      "outputs": [
        {
          "internalType": "uint256",
          "name": "",
          "type": "uint256"
        }
      ],
      "stateMutability": "view",
      "type": "function"
    },
    {
      "inputs": [
        {
          "internalType": "address",
          "name": "from",
          "type": "address"
        },
        {
          "internalType": "address",
          "name": "to",
          "type": "address"
        },
        {
          "internalType": "uint256",
          "name": "value",
          "type": "uint256"
        }
      ],
      "name": "transfer",
      "outputs": [
        {
          "internalType": "bool",
          "name": "",
          "type": "bool"
        }
      ],
      "stateMutability": "nonpayable",
      "type": "function"
    },
    {
      "inputs": [
        {
          "internalType": "address",
          "name": "from",
          "type": "address"
        },
        {
          "internalType": "address",
          "name": "to",
          "type": "address"
        },
        {
          "internalType": "uint256",
          "name": "value",
          "type": "uint256"
        }
      ],
      "name": "transferFrom",
      "outputs": [
        {
          "internalType": "bool",
          "name": "",
          "type": "bool"
        }
      ],
      "stateMutability": "nonpayable",
      "type": "function"
    },
    {
      "inputs": [
        {
          "internalType": "address",
          "name": "_address",
          "type": "address"
        }
      ],
      "name": "transferOwnership",
      "outputs": [
        {
          "internalType": "bool",
          "name": "",
          "type": "bool"
        }
      ],
      "stateMutability": "nonpayable",
      "type": "function"
    }
  ],
  "bytecode": "0x60806040523480156200001157600080fd5b506040518060400160405280600681526020017f464154484f4d0000000000000000000000000000000000000000000000000000815250600590805190602001906200005f9291906200032f565b506040518060400160405280600381526020017f465448000000000000000000000000000000000000000000000000000000000081525060069080519060200190620000ad9291906200032f565b506012600760006101000a81548160ff021916908360ff160217905550336000806101000a81548173ffffffffffffffffffffffffffffffffffffffff021916908373ffffffffffffffffffffffffffffffffffffffff16021790555060018060003373ffffffffffffffffffffffffffffffffffffffff1673ffffffffffffffffffffffffffffffffffffffff16815260200190815260200160002060006101000a81548160ff021916908315150217905550620001a233600760009054906101000a900460ff1660ff16600a6200018791906200056c565b6103e8620001969190620005bd565b620001de60201b60201c565b600760009054906101000a900460ff1660ff16600a620001c391906200056c565b6103e8620001d29190620005bd565b60088190555062000790565b600073ffffffffffffffffffffffffffffffffffffffff168273ffffffffffffffffffffffffffffffffffffffff160362000250576040517f08c379a000000000000000000000000000000000000000000000000000000000815260040162000247906200067f565b60405180910390fd5b8060046000828254620002649190620006a1565b9250508190555080600260008473ffffffffffffffffffffffffffffffffffffffff1673ffffffffffffffffffffffffffffffffffffffff1681526020019081526020016000206000828254620002bc9190620006a1565b925050819055508173ffffffffffffffffffffffffffffffffffffffff16600073ffffffffffffffffffffffffffffffffffffffff167fddf252ad1be2c89b69c2b068fc378daa952ba7f163c4a11628f55a4df523b3ef836040516200032391906200070f565b60405180910390a35050565b8280546200033d906200075b565b90600052602060002090601f016020900481019282620003615760008555620003ad565b82601f106200037c57805160ff1916838001178555620003ad565b82800160010185558215620003ad579182015b82811115620003ac5782518255916020019190600101906200038f565b5b509050620003bc9190620003c0565b5090565b5b80821115620003db576000816000905550600101620003c1565b5090565b7f4e487b7100000000000000000000000000000000000000000000000000000000600052601160045260246000fd5b60008160011c9050919050565b6000808291508390505b60018511156200046d57808604811115620004455762000444620003df565b5b6001851615620004555780820291505b808102905062000465856200040e565b945062000425565b94509492505050565b6000826200048857600190506200055b565b816200049857600090506200055b565b8160018114620004b15760028114620004bc57620004f2565b60019150506200055b565b60ff841115620004d157620004d0620003df565b5b8360020a915084821115620004eb57620004ea620003df565b5b506200055b565b5060208310610133831016604e8410600b84101617156200052c5782820a905083811115620005265762000525620003df565b5b6200055b565b6200053b84848460016200041b565b92509050818404811115620005555762000554620003df565b5b81810290505b9392505050565b6000819050919050565b6000620005798262000562565b9150620005868362000562565b9250620005b57fffffffffffffffffffffffffffffffffffffffffffffffffffffffffffffffff848462000476565b905092915050565b6000620005ca8262000562565b9150620005d78362000562565b9250817fffffffffffffffffffffffffffffffffffffffffffffffffffffffffffffffff0483118215151615620006135762000612620003df565b5b828202905092915050565b600082825260208201905092915050565b7f496e76616c696420616464726573730000000000000000000000000000000000600082015250565b600062000667600f836200061e565b915062000674826200062f565b602082019050919050565b600060208201905081810360008301526200069a8162000658565b9050919050565b6000620006ae8262000562565b9150620006bb8362000562565b9250827fffffffffffffffffffffffffffffffffffffffffffffffffffffffffffffffff03821115620006f357620006f2620003df565b5b828201905092915050565b620007098162000562565b82525050565b6000602082019050620007266000830184620006fe565b92915050565b7f4e487b7100000000000000000000000000000000000000000000000000000000600052602260045260246000fd5b600060028204905060018216806200077457607f821691505b6020821081036200078a57620007896200072c565b5b50919050565b611e6b80620007a06000396000f3fe608060405234801561001057600080fd5b50600436106101375760003560e01c8063704b6c02116100b8578063beabacc81161007c578063beabacc8146103a0578063bf583903146103d0578063c0001786146103ee578063dd62ed3e1461041e578063f2fde38b1461044e578063f7ea7a3d1461047e57610137565b8063704b6c02146102d457806370a0823114610304578063893d20e81461033457806395d89b4114610352578063a457c2d71461037057610137565b8063313ce567116100ff578063313ce5671461020857806332a2c5d0146102265780633950935114610244578063484b973c146102745780636f8b44b0146102a457610137565b806306fdde031461013c578063095ea7b31461015a5780631785f53c1461018a57806318160ddd146101ba57806323b872dd146101d8575b600080fd5b6101446104ae565b6040516101519190611831565b60405180910390f35b610174600480360381019061016f91906118ec565b610540565b6040516101819190611947565b60405180910390f35b6101a4600480360381019061019f9190611962565b6106a0565b6040516101b19190611947565b60405180910390f35b6101c26107c9565b6040516101cf919061199e565b60405180910390f35b6101f260048036038101906101ed91906119b9565b6107d3565b6040516101ff9190611947565b60405180910390f35b61021061091b565b60405161021d9190611a28565b60405180910390f35b61022e610932565b60405161023b9190611a52565b60405180910390f35b61025e600480360381019061025991906118ec565b61093a565b60405161026b9190611947565b60405180910390f35b61028e600480360381019061028991906118ec565b610b28565b60405161029b9190611947565b60405180910390f35b6102be60048036038101906102b99190611a6d565b610b90565b6040516102cb9190611947565b60405180910390f35b6102ee60048036038101906102e99190611962565b610c31565b6040516102fb9190611947565b60405180910390f35b61031e60048036038101906103199190611962565b610d59565b60405161032b919061199e565b60405180910390f35b61033c610d71565b6040516103499190611a52565b60405180910390f35b61035a610d9a565b6040516103679190611831565b60405180910390f35b61038a600480360381019061038591906118ec565b610e2c565b6040516103979190611947565b60405180910390f35b6103ba60048036038101906103b591906119b9565b61101a565b6040516103c79190611947565b60405180910390f35b6103d8611124565b6040516103e5919061199e565b60405180910390f35b610408600480360381019061040391906118ec565b61113b565b6040516104159190611947565b60405180910390f35b61043860048036038101906104339190611a9a565b611151565b604051610445919061199e565b60405180910390f35b61046860048036038101906104639190611962565b6111d8565b6040516104759190611947565b60405180910390f35b61049860048036038101906104939190611a6d565b61132c565b6040516104a59190611947565b60405180910390f35b6060600580546104bd90611b09565b80601f01602080910402602001604051908101604052809291908181526020018280546104e990611b09565b80156105365780601f1061050b57610100808354040283529160200191610536565b820191906000526020600020905b81548152906001019060200180831161051957829003601f168201915b5050505050905090565b60008073ffffffffffffffffffffffffffffffffffffffff168373ffffffffffffffffffffffffffffffffffffffff16036105b0576040517f08c379a00000000000000000000000000000000000000000000000000000000081526004016105a790611b86565b60405180910390fd5b81600360003373ffffffffffffffffffffffffffffffffffffffff1673ffffffffffffffffffffffffffffffffffffffff16815260200190815260200160002060008573ffffffffffffffffffffffffffffffffffffffff1673ffffffffffffffffffffffffffffffffffffffff168152602001908152602001600020819055508273ffffffffffffffffffffffffffffffffffffffff163373ffffffffffffffffffffffffffffffffffffffff167f8c5be1e5ebec7d5bd14f71427d1e84f3dd0314c0f7b2291e5b200ac8c7c3b9258460405161068e919061199e565b60405180910390a36001905092915050565b60008060009054906101000a900473ffffffffffffffffffffffffffffffffffffffff1673ffffffffffffffffffffffffffffffffffffffff163373ffffffffffffffffffffffffffffffffffffffff1614610731576040517f08c379a000000000000000000000000000000000000000000000000000000000815260040161072890611c18565b60405180910390fd5b6000600160008473ffffffffffffffffffffffffffffffffffffffff1673ffffffffffffffffffffffffffffffffffffffff16815260200190815260200160002060006101000a81548160ff0219169083151502179055507fa3b62bc36326052d97ea62d63c3d60308ed4c3ea8ac079dd8499f1e9c4f80c0f826040516107b89190611a52565b60405180910390a160019050919050565b6000600454905090565b6000600260008573ffffffffffffffffffffffffffffffffffffffff1673ffffffffffffffffffffffffffffffffffffffff16815260200190815260200160002054821115610857576040517f08c379a000000000000000000000000000000000000000000000000000000000815260040161084e90611c84565b60405180910390fd5b600073ffffffffffffffffffffffffffffffffffffffff168373ffffffffffffffffffffffffffffffffffffffff16036108c6576040517f08c379a00000000000000000000000000000000000000000000000000000000081526004016108bd90611b86565b60405180910390fd5b6108d18484846113cd565b610910576040517f08c379a000000000000000000000000000000000000000000000000000000000815260040161090790611cf0565b60405180910390fd5b600190509392505050565b6000600760009054906101000a900460ff16905090565b600030905090565b60008073ffffffffffffffffffffffffffffffffffffffff168373ffffffffffffffffffffffffffffffffffffffff16036109aa576040517f08c379a00000000000000000000000000000000000000000000000000000000081526004016109a190611b86565b60405180910390fd5b81600360003373ffffffffffffffffffffffffffffffffffffffff1673ffffffffffffffffffffffffffffffffffffffff16815260200190815260200160002060008573ffffffffffffffffffffffffffffffffffffffff1673ffffffffffffffffffffffffffffffffffffffff1681526020019081526020016000206000828254610a369190611d3f565b925050819055508273ffffffffffffffffffffffffffffffffffffffff163373ffffffffffffffffffffffffffffffffffffffff167f8c5be1e5ebec7d5bd14f71427d1e84f3dd0314c0f7b2291e5b200ac8c7c3b925600360003373ffffffffffffffffffffffffffffffffffffffff1673ffffffffffffffffffffffffffffffffffffffff16815260200190815260200160002060008773ffffffffffffffffffffffffffffffffffffffff1673ffffffffffffffffffffffffffffffffffffffff16815260200190815260200160002054604051610b16919061199e565b60405180910390a36001905092915050565b600060085482600454610b3b9190611d3f565b1115610b7c576040517f08c379a0000000000000000000000000000000000000000000000000000000008152600401610b7390611de1565b60405180910390fd5b610b868383611486565b6001905092915050565b60008060009054906101000a900473ffffffffffffffffffffffffffffffffffffffff1673ffffffffffffffffffffffffffffffffffffffff163373ffffffffffffffffffffffffffffffffffffffff1614610c21576040517f08c379a0000000000000000000000000000000000000000000000000000000008152600401610c1890611c18565b60405180910390fd5b8160088190555060019050919050565b60008060009054906101000a900473ffffffffffffffffffffffffffffffffffffffff1673ffffffffffffffffffffffffffffffffffffffff163373ffffffffffffffffffffffffffffffffffffffff1614610cc2576040517f08c379a0000000000000000000000000000000000000000000000000000000008152600401610cb990611c18565b60405180910390fd5b60018060008473ffffffffffffffffffffffffffffffffffffffff1673ffffffffffffffffffffffffffffffffffffffff16815260200190815260200160002060006101000a81548160ff0219169083151502179055507f8fe72c3e0020beb3234e76ae6676fa576fbfcae600af1c4fea44784cf0db329c82604051610d489190611a52565b60405180910390a160019050919050565b60026020528060005260406000206000915090505481565b60008060009054906101000a900473ffffffffffffffffffffffffffffffffffffffff16905090565b606060068054610da990611b09565b80601f0160208091040260200160405190810160405280929190818152602001828054610dd590611b09565b8015610e225780601f10610df757610100808354040283529160200191610e22565b820191906000526020600020905b815481529060010190602001808311610e0557829003601f168201915b5050505050905090565b60008073ffffffffffffffffffffffffffffffffffffffff168373ffffffffffffffffffffffffffffffffffffffff1603610e9c576040517f08c379a0000000000000000000000000000000000000000000000000000000008152600401610e9390611b86565b60405180910390fd5b81600360003373ffffffffffffffffffffffffffffffffffffffff1673ffffffffffffffffffffffffffffffffffffffff16815260200190815260200160002060008573ffffffffffffffffffffffffffffffffffffffff1673ffffffffffffffffffffffffffffffffffffffff1681526020019081526020016000206000828254610f289190611e01565b925050819055508273ffffffffffffffffffffffffffffffffffffffff163373ffffffffffffffffffffffffffffffffffffffff167f8c5be1e5ebec7d5bd14f71427d1e84f3dd0314c0f7b2291e5b200ac8c7c3b925600360003373ffffffffffffffffffffffffffffffffffffffff1673ffffffffffffffffffffffffffffffffffffffff16815260200190815260200160002060008773ffffffffffffffffffffffffffffffffffffffff1673ffffffffffffffffffffffffffffffffffffffff16815260200190815260200160002054604051611008919061199e565b60405180910390a36001905092915050565b6000600260008573ffffffffffffffffffffffffffffffffffffffff1673ffffffffffffffffffffffffffffffffffffffff1681526020019081526020016000205482111561109e576040517f08c379a000000000000000000000000000000000000000000000000000000000815260040161109590611c84565b60405180910390fd5b600073ffffffffffffffffffffffffffffffffffffffff168373ffffffffffffffffffffffffffffffffffffffff160361110d576040517f08c379a000000000000000000000000000000000000000000000000000000000815260040161110490611b86565b60405180910390fd5b6111188484846113cd565b50600190509392505050565b60006004546008546111369190611e01565b905090565b600061114783836115ce565b6001905092915050565b6000600360008473ffffffffffffffffffffffffffffffffffffffff1673ffffffffffffffffffffffffffffffffffffffff16815260200190815260200160002060008373ffffffffffffffffffffffffffffffffffffffff1673ffffffffffffffffffffffffffffffffffffffff16815260200190815260200160002054905092915050565b60008060009054906101000a900473ffffffffffffffffffffffffffffffffffffffff1673ffffffffffffffffffffffffffffffffffffffff163373ffffffffffffffffffffffffffffffffffffffff1614611269576040517f08c379a000000000000000000000000000000000000000000000000000000000815260040161126090611c18565b60405180910390fd5b8173ffffffffffffffffffffffffffffffffffffffff1660008054906101000a900473ffffffffffffffffffffffffffffffffffffffff1673ffffffffffffffffffffffffffffffffffffffff167f8be0079c531659141344cd1fd0a4f28419497f9722a3daafe3b4186f6b6457e060405160405180910390a3816000806101000a81548173ffffffffffffffffffffffffffffffffffffffff021916908373ffffffffffffffffffffffffffffffffffffffff16021790555060019050919050565b60008060009054906101000a900473ffffffffffffffffffffffffffffffffffffffff1673ffffffffffffffffffffffffffffffffffffffff163373ffffffffffffffffffffffffffffffffffffffff16146113bd576040517f08c379a00000000000000000000000000000000000000000000000000000000081526004016113b490611c18565b60405180910390fd5b8160048190555060019050919050565b600081600260008673ffffffffffffffffffffffffffffffffffffffff1673ffffffffffffffffffffffffffffffffffffffff168152602001908152602001600020600082825461141e9190611e01565b9250508190555081600260008573ffffffffffffffffffffffffffffffffffffffff1673ffffffffffffffffffffffffffffffffffffffff16815260200190815260200160002060008282546114749190611d3f565b92505081905550600190509392505050565b600073ffffffffffffffffffffffffffffffffffffffff168273ffffffffffffffffffffffffffffffffffffffff16036114f5576040517f08c379a00000000000000000000000000000000000000000000000000000000081526004016114ec90611b86565b60405180910390fd5b80600460008282546115079190611d3f565b9250508190555080600260008473ffffffffffffffffffffffffffffffffffffffff1673ffffffffffffffffffffffffffffffffffffffff168152602001908152602001600020600082825461155d9190611d3f565b925050819055508173ffffffffffffffffffffffffffffffffffffffff16600073ffffffffffffffffffffffffffffffffffffffff167fddf252ad1be2c89b69c2b068fc378daa952ba7f163c4a11628f55a4df523b3ef836040516115c2919061199e565b60405180910390a35050565b600073ffffffffffffffffffffffffffffffffffffffff168273ffffffffffffffffffffffffffffffffffffffff160361163d576040517f08c379a000000000000000000000000000000000000000000000000000000000815260040161163490611b86565b60405180910390fd5b600260008373ffffffffffffffffffffffffffffffffffffffff1673ffffffffffffffffffffffffffffffffffffffff168152602001908152602001600020548111156116bf576040517f08c379a00000000000000000000000000000000000000000000000000000000081526004016116b690611c84565b60405180910390fd5b80600460008282546116d19190611e01565b9250508190555080600260008473ffffffffffffffffffffffffffffffffffffffff1673ffffffffffffffffffffffffffffffffffffffff16815260200190815260200160002060008282546117279190611e01565b92505081905550600073ffffffffffffffffffffffffffffffffffffffff168273ffffffffffffffffffffffffffffffffffffffff167fddf252ad1be2c89b69c2b068fc378daa952ba7f163c4a11628f55a4df523b3ef8360405161178c919061199e565b60405180910390a35050565b600081519050919050565b600082825260208201905092915050565b60005b838110156117d25780820151818401526020810190506117b7565b838111156117e1576000848401525b50505050565b6000601f19601f8301169050919050565b600061180382611798565b61180d81856117a3565b935061181d8185602086016117b4565b611826816117e7565b840191505092915050565b6000602082019050818103600083015261184b81846117f8565b905092915050565b600080fd5b600073ffffffffffffffffffffffffffffffffffffffff82169050919050565b600061188382611858565b9050919050565b61189381611878565b811461189e57600080fd5b50565b6000813590506118b08161188a565b92915050565b6000819050919050565b6118c9816118b6565b81146118d457600080fd5b50565b6000813590506118e6816118c0565b92915050565b6000806040838503121561190357611902611853565b5b6000611911858286016118a1565b9250506020611922858286016118d7565b9150509250929050565b60008115159050919050565b6119418161192c565b82525050565b600060208201905061195c6000830184611938565b92915050565b60006020828403121561197857611977611853565b5b6000611986848285016118a1565b91505092915050565b611998816118b6565b82525050565b60006020820190506119b3600083018461198f565b92915050565b6000806000606084860312156119d2576119d1611853565b5b60006119e0868287016118a1565b93505060206119f1868287016118a1565b9250506040611a02868287016118d7565b9150509250925092565b600060ff82169050919050565b611a2281611a0c565b82525050565b6000602082019050611a3d6000830184611a19565b92915050565b611a4c81611878565b82525050565b6000602082019050611a676000830184611a43565b92915050565b600060208284031215611a8357611a82611853565b5b6000611a91848285016118d7565b91505092915050565b60008060408385031215611ab157611ab0611853565b5b6000611abf858286016118a1565b9250506020611ad0858286016118a1565b9150509250929050565b7f4e487b7100000000000000000000000000000000000000000000000000000000600052602260045260246000fd5b60006002820490506001821680611b2157607f821691505b602082108103611b3457611b33611ada565b5b50919050565b7f496e76616c696420616464726573730000000000000000000000000000000000600082015250565b6000611b70600f836117a3565b9150611b7b82611b3a565b602082019050919050565b60006020820190508181036000830152611b9f81611b63565b9050919050565b7f4f6e6c79206f776e65722069732061626c6520746f206163636573732074686960008201527f732066756e6374696f6e00000000000000000000000000000000000000000000602082015250565b6000611c02602a836117a3565b9150611c0d82611ba6565b604082019050919050565b60006020820190508181036000830152611c3181611bf5565b9050919050565b7f496e73756666696369656e742062616c616e6365000000000000000000000000600082015250565b6000611c6e6014836117a3565b9150611c7982611c38565b602082019050919050565b60006020820190508181036000830152611c9d81611c61565b9050919050565b7f5472616e73666572206661696c65640000000000000000000000000000000000600082015250565b6000611cda600f836117a3565b9150611ce582611ca4565b602082019050919050565b60006020820190508181036000830152611d0981611ccd565b9050919050565b7f4e487b7100000000000000000000000000000000000000000000000000000000600052601160045260246000fd5b6000611d4a826118b6565b9150611d55836118b6565b9250827fffffffffffffffffffffffffffffffffffffffffffffffffffffffffffffffff03821115611d8a57611d89611d10565b5b828201905092915050565b7f4d617820737570706c7920657863656564656400000000000000000000000000600082015250565b6000611dcb6013836117a3565b9150611dd682611d95565b602082019050919050565b60006020820190508181036000830152611dfa81611dbe565b9050919050565b6000611e0c826118b6565b9150611e17836118b6565b925082821015611e2a57611e29611d10565b5b82820390509291505056fea2646970667358221220a930806d99c94415f288b9c9b317256d1c600f1079f71523e4ecbdd21529910264736f6c634300080e0033",
  "linkReferences": {},
  "deployedLinkReferences": {}
}